{
  "contractName": "Tictactoe",
  "abi": [
    {
      "inputs": [
        {
          "internalType": "address payable",
          "name": "p2",
          "type": "address"
        }
      ],
      "stateMutability": "nonpayable",
      "type": "constructor"
    },
    {
      "inputs": [
        {
          "internalType": "uint256",
          "name": "_turnNumber",
          "type": "uint256"
        }
      ],
      "name": "myTurn",
      "outputs": [
        {
          "internalType": "bool",
          "name": "",
          "type": "bool"
        }
      ],
      "stateMutability": "view",
      "type": "function",
      "constant": true
    },
    {
      "inputs": [],
      "name": "kill",
      "outputs": [],
      "stateMutability": "nonpayable",
      "type": "function"
    },
    {
      "inputs": [
        {
          "internalType": "uint256",
          "name": "a",
          "type": "uint256"
        }
      ],
      "name": "validMove",
      "outputs": [
        {
          "internalType": "bool",
          "name": "",
          "type": "bool"
        }
      ],
      "stateMutability": "view",
      "type": "function",
      "constant": true
    },
    {
      "inputs": [],
      "name": "displayBoard",
      "outputs": [
        {
          "internalType": "uint256[]",
          "name": "",
          "type": "uint256[]"
        }
      ],
      "stateMutability": "view",
      "type": "function",
      "constant": true
    },
    {
      "inputs": [],
      "name": "winCheck",
      "outputs": [
        {
          "internalType": "uint256",
          "name": "",
          "type": "uint256"
        }
      ],
      "stateMutability": "view",
      "type": "function",
      "constant": true
    },
    {
      "inputs": [
        {
          "internalType": "uint256",
          "name": "a",
          "type": "uint256"
        }
      ],
      "name": "play",
      "outputs": [],
      "stateMutability": "nonpayable",
      "type": "function"
    },
    {
      "inputs": [],
      "name": "winner",
      "outputs": [
        {
          "internalType": "uint256",
          "name": "",
          "type": "uint256"
        }
      ],
      "stateMutability": "view",
      "type": "function",
      "constant": true
    },
    {
      "inputs": [
        {
          "internalType": "address payable",
          "name": "p2",
          "type": "address"
        }
      ],
      "name": "newGame",
      "outputs": [],
      "stateMutability": "nonpayable",
      "type": "function"
    }
  ],
  "bytecode": "0x6080604052600967ffffffffffffffff8111156200002257620000216200019e565b5b604051908082528060200260200182016040528015620000515781602001602082028036833780820191505090505b5060029080519060200190620000699291906200012d565b503480156200007757600080fd5b50604051620010593803806200105983398181016040528101906200009d919062000237565b336000806101000a81548173ffffffffffffffffffffffffffffffffffffffff021916908373ffffffffffffffffffffffffffffffffffffffff16021790555080600160006101000a81548173ffffffffffffffffffffffffffffffffffffffff021916908373ffffffffffffffffffffffffffffffffffffffff16021790555060016004819055505062000269565b8280548282559060005260206000209081019282156200016c579160200282015b828111156200016b5782518255916020019190600101906200014e565b5b5090506200017b91906200017f565b5090565b5b808211156200019a57600081600090555060010162000180565b5090565b7f4e487b7100000000000000000000000000000000000000000000000000000000600052604160045260246000fd5b600080fd5b600073ffffffffffffffffffffffffffffffffffffffff82169050919050565b6000620001ff82620001d2565b9050919050565b6200021181620001f2565b81146200021d57600080fd5b50565b600081519050620002318162000206565b92915050565b60006020828403121562000250576200024f620001cd565b5b6000620002608482850162000220565b91505092915050565b610de080620002796000396000f3fe608060405234801561001057600080fd5b50600436106100885760003560e01c8063c2e0b1e61161005b578063c2e0b1e614610101578063da5615101461011d578063dfbf53ae1461013b578063e7bbb16b1461015957610088565b806341c0e1b51461008d5780636898f82b1461009757806390e0c59c146100b3578063b4c95a5c146100d1575b600080fd5b610095610189565b005b6100b160048036038101906100ac9190610a2d565b610226565b005b6100bb610294565b6040516100c89190610a69565b60405180910390f35b6100eb60048036038101906100e69190610a2d565b610582565b6040516100f89190610a9f565b60405180910390f35b61011b60048036038101906101169190610b18565b61069b565b005b61012561078f565b6040516101329190610c03565b60405180910390f35b6101436107e7565b6040516101509190610a69565b60405180910390f35b610173600480360381019061016e9190610a2d565b610805565b6040516101809190610a9f565b60405180910390f35b60008054906101000a900473ffffffffffffffffffffffffffffffffffffffff1673ffffffffffffffffffffffffffffffffffffffff163373ffffffffffffffffffffffffffffffffffffffff161480156101e657506000600354115b156102245760008054906101000a900473ffffffffffffffffffffffffffffffffffffffff1673ffffffffffffffffffffffffffffffffffffffff16ff5b565b61022f81610582565b1561028c576004546002828154811061024b5761024a610c25565b5b9060005260206000200181905550600160045403610270576002600481905550610279565b60016004819055505b610281610294565b600381905550610291565b600080fd5b50565b600080600090505b6003811015610386576102c8818260036102b69190610c83565b8360066102c39190610c83565b6108ce565b156102f457600281815481106102e1576102e0610c25565b5b906000526020600020015491505061057f565b61033b8160036103049190610cd9565b60018360036103139190610cd9565b61031d9190610c83565b600284600361032c9190610cd9565b6103369190610c83565b6108ce565b1561037357600281600361034f9190610cd9565b815481106103605761035f610c25565b5b906000526020600020015491505061057f565b808061037e90610d33565b91505061029c565b506103956000600460086108ce565b156103c15760026000815481106103af576103ae610c25565b5b9060005260206000200154905061057f565b6103cf6002600460066108ce565b156103fa57600280815481106103e8576103e7610c25565b5b9060005260206000200154905061057f565b600d600260018154811061041157610410610c25565b5b9060005260206000200154600260018154811061043157610430610c25565b5b9060005260206000200154600260018154811061045157610450610c25565b5b9060005260206000200154600260018154811061047157610470610c25565b5b9060005260206000200154600260018154811061049157610490610c25565b5b906000526020600020015460026001815481106104b1576104b0610c25565b5b906000526020600020015460026001815481106104d1576104d0610c25565b5b906000526020600020015460026001815481106104f1576104f0610c25565b5b9060005260206000200154600260008154811061051157610510610c25565b5b90600052602060002001546105269190610c83565b6105309190610c83565b61053a9190610c83565b6105449190610c83565b61054e9190610c83565b6105589190610c83565b6105629190610c83565b61056c9190610c83565b0361057a576003905061057f565b600090505b90565b60008060035411806105945750600082105b8061059f5750600882115b806105c857506000600283815481106105bb576105ba610c25565b5b9060005260206000200154115b158015610694575060008054906101000a900473ffffffffffffffffffffffffffffffffffffffff1673ffffffffffffffffffffffffffffffffffffffff163373ffffffffffffffffffffffffffffffffffffffff1614801561062d57506001600454145b806106935750600160009054906101000a900473ffffffffffffffffffffffffffffffffffffffff1673ffffffffffffffffffffffffffffffffffffffff163373ffffffffffffffffffffffffffffffffffffffff1614801561069257506002600454145b5b5b9050919050565b336000806101000a81548173ffffffffffffffffffffffffffffffffffffffff021916908373ffffffffffffffffffffffffffffffffffffffff16021790555080600160006101000a81548173ffffffffffffffffffffffffffffffffffffffff021916908373ffffffffffffffffffffffffffffffffffffffff1602179055506001600481905550600967ffffffffffffffff81111561073f5761073e610d7b565b5b60405190808252806020026020018201604052801561076d5781602001602082028036833780820191505090505b5060029080519060200190610783929190610988565b50600060038190555050565b606060028054806020026020016040519081016040528092919081815260200182805480156107dd57602002820191906000526020600020905b8154815260200190600101908083116107c9575b5050505050905090565b60008060035411156107fd576003549050610802565b600090505b90565b60008060009054906101000a900473ffffffffffffffffffffffffffffffffffffffff1673ffffffffffffffffffffffffffffffffffffffff163373ffffffffffffffffffffffffffffffffffffffff161480156108635750600182145b806108c75750600160009054906101000a900473ffffffffffffffffffffffffffffffffffffffff1673ffffffffffffffffffffffffffffffffffffffff163373ffffffffffffffffffffffffffffffffffffffff161480156108c65750600282145b5b9050919050565b600080600285815481106108e5576108e4610c25565b5b906000526020600020015411801561093857506002838154811061090c5761090b610c25565b5b90600052602060002001546002858154811061092b5761092a610c25565b5b9060005260206000200154145b801561097f57506002828154811061095357610952610c25565b5b90600052602060002001546002848154811061097257610971610c25565b5b9060005260206000200154145b90509392505050565b8280548282559060005260206000209081019282156109c4579160200282015b828111156109c35782518255916020019190600101906109a8565b5b5090506109d191906109d5565b5090565b5b808211156109ee5760008160009055506001016109d6565b5090565b600080fd5b6000819050919050565b610a0a816109f7565b8114610a1557600080fd5b50565b600081359050610a2781610a01565b92915050565b600060208284031215610a4357610a426109f2565b5b6000610a5184828501610a18565b91505092915050565b610a63816109f7565b82525050565b6000602082019050610a7e6000830184610a5a565b92915050565b60008115159050919050565b610a9981610a84565b82525050565b6000602082019050610ab46000830184610a90565b92915050565b600073ffffffffffffffffffffffffffffffffffffffff82169050919050565b6000610ae582610aba565b9050919050565b610af581610ada565b8114610b0057600080fd5b50565b600081359050610b1281610aec565b92915050565b600060208284031215610b2e57610b2d6109f2565b5b6000610b3c84828501610b03565b91505092915050565b600081519050919050565b600082825260208201905092915050565b6000819050602082019050919050565b610b7a816109f7565b82525050565b6000610b8c8383610b71565b60208301905092915050565b6000602082019050919050565b6000610bb082610b45565b610bba8185610b50565b9350610bc583610b61565b8060005b83811015610bf6578151610bdd8882610b80565b9750610be883610b98565b925050600181019050610bc9565b5085935050505092915050565b60006020820190508181036000830152610c1d8184610ba5565b905092915050565b7f4e487b7100000000000000000000000000000000000000000000000000000000600052603260045260246000fd5b7f4e487b7100000000000000000000000000000000000000000000000000000000600052601160045260246000fd5b6000610c8e826109f7565b9150610c99836109f7565b9250827fffffffffffffffffffffffffffffffffffffffffffffffffffffffffffffffff03821115610cce57610ccd610c54565b5b828201905092915050565b6000610ce4826109f7565b9150610cef836109f7565b9250817fffffffffffffffffffffffffffffffffffffffffffffffffffffffffffffffff0483118215151615610d2857610d27610c54565b5b828202905092915050565b6000610d3e826109f7565b91507fffffffffffffffffffffffffffffffffffffffffffffffffffffffffffffffff8203610d7057610d6f610c54565b5b600182019050919050565b7f4e487b7100000000000000000000000000000000000000000000000000000000600052604160045260246000fdfea2646970667358221220de0073ae26b095c1aaf8a55e5c0210441664284e596237c5baa03a1552b1e16c64736f6c634300080f0033",
  "immutableReferences": {},
  "source": "// SPDX-License-Identifier: GPL-3.0\r\n\r\npragma solidity ^0.8.7;\r\n\r\n    contract Tictactoe {\r\n        address payable p1Address;\r\n        address payable p2Address;\r\n        uint[] board = new uint[](9);\r\n        uint winCondition;\r\n        uint turnNumber;\r\n\r\n        //function makeMove(uint board[]) returns (){\r\n\r\n        //}\r\n\r\n        constructor(address payable p2) {\r\n            p1Address = payable(msg.sender);\r\n            p2Address = p2;\r\n            turnNumber = 1;\r\n        }\r\n\r\n        function subCheckWin(uint a, uint b, uint c) private view returns (bool){\r\n            return board[a]>0 && board[a]==board[b] && board[b]==board[c];\r\n        }\r\n\r\n\r\n        function myTurn(uint _turnNumber) public view returns (bool) {\r\n            return (msg.sender == p1Address && _turnNumber == 1) || (msg.sender == p2Address && _turnNumber == 2);\r\n\r\n        }\r\n\r\n        function kill() public {\r\n            if (msg.sender == p1Address && winCondition>0) {\r\n            selfdestruct(p1Address); \r\n        }\r\n        }\r\n\r\n        function validMove(uint a) public view returns (bool){\r\n            return !(winCondition>0 || a<0 || a>8 || board[a]>0) &&\r\n                ((msg.sender == p1Address && turnNumber==1) || (msg.sender == p2Address && turnNumber==2));\r\n        }\r\n\r\n        function displayBoard() public view returns(uint[] memory){\r\n            return board;\r\n        }\r\n\r\n        function winCheck() public view returns (uint){\r\n            for (uint i = 0; i < 3; i++) {\r\n            if (subCheckWin(i,3+i,6+i)) {\r\n                return board[i];\r\n            }\r\n            if (subCheckWin(3*i,3*i+1,3*i+2)) {\r\n                return board[3*i];\r\n            }\r\n        }\r\n        if (subCheckWin(0,4,8)) {\r\n            return board[0];\r\n        }\r\n        if (subCheckWin(2,4,6)) {\r\n            return board[2];\r\n        }\r\n        if (board[0]+board[1]+board[1]+board[1]+board[1]+board[1]+board[1]+board[1]+board[1] == 13){\r\n            return 3;\r\n        }\r\n        return 0;\r\n        }\r\n\r\n        function play(uint a) public {\r\n            if (validMove(a)) {\r\n            board[a] = turnNumber;\r\n            if (turnNumber==1) {\r\n                turnNumber = 2;\r\n            } else { \r\n                turnNumber = 1;\r\n            }\r\n            winCondition = winCheck();\r\n        } else {\r\n            revert();\r\n        }\r\n        }\r\n\r\n    function winner() public view returns (uint) {\r\n\r\n        //getter for the winner attribute\r\n        if (winCondition>0) {\r\n            return winCondition;\r\n        } else {\r\n            return 0;\r\n        }    \r\n    }\r\n\r\n        function newGame(address payable p2) public {\r\n            p1Address = payable(msg.sender);\r\n            p2Address = p2;\r\n            turnNumber = 1;\r\n            board = new uint[](9);\r\n            winCondition = 0;\r\n        }\r\n\r\n    }\r\n",
  "sourcePath": "C:\\Users\\guarinof\\Downloads\\eli-kash-g-ttt\\Blockchain-Tic-Tac-Toe\\tictactoe\\contracts\\tictactoe.sol",
  "compiler": {
    "name": "solc",
    "version": "0.8.15+commit.e14f2714.Emscripten.clang"
  },
  "schemaVersion": "3.4.7",
  "updatedAt": "2022-08-09T01:57:26.307Z",
  "networkType": "ethereum",
  "devdoc": {
    "kind": "dev",
    "methods": {},
    "version": 1
  },
  "userdoc": {
    "kind": "user",
    "methods": {},
    "version": 1
  }
}