{
  "contractName": "Tictactoe",
  "abi": [
    {
      "inputs": [],
      "name": "kill",
      "outputs": [],
      "stateMutability": "nonpayable",
      "type": "function"
    },
    {
      "inputs": [
        {
          "internalType": "uint256",
          "name": "a",
          "type": "uint256"
        }
      ],
      "name": "validMove",
      "outputs": [
        {
          "internalType": "bool",
          "name": "",
          "type": "bool"
        }
      ],
      "stateMutability": "view",
      "type": "function"
    },
    {
      "inputs": [],
      "name": "displayBoard",
      "outputs": [
        {
          "internalType": "uint256[]",
          "name": "",
          "type": "uint256[]"
        }
      ],
      "stateMutability": "view",
      "type": "function"
    },
    {
      "inputs": [],
      "name": "winCheck",
      "outputs": [
        {
          "internalType": "uint256",
          "name": "",
          "type": "uint256"
        }
      ],
      "stateMutability": "view",
      "type": "function"
    },
    {
      "inputs": [
        {
          "internalType": "uint256",
          "name": "a",
          "type": "uint256"
        }
      ],
      "name": "play",
      "outputs": [],
      "stateMutability": "nonpayable",
      "type": "function"
    },
    {
      "inputs": [
        {
          "internalType": "address payable",
          "name": "p2",
          "type": "address"
        }
      ],
      "name": "TicTacToe",
      "outputs": [],
      "stateMutability": "nonpayable",
      "type": "function"
    }
  ],
  "bytecode": "0x6080604052600967ffffffffffffffff81111561001f5761001e6100e0565b5b60405190808252806020026020018201604052801561004d5781602001602082028036833780820191505090505b5060029080519060200190610063929190610076565b5034801561007057600080fd5b5061010f565b8280548282559060005260206000209081019282156100b2579160200282015b828111156100b1578251825591602001919060010190610096565b5b5090506100bf91906100c3565b5090565b5b808211156100dc5760008160009055506001016100c4565b5090565b7f4e487b7100000000000000000000000000000000000000000000000000000000600052604160045260246000fd5b610b848061011e6000396000f3fe608060405234801561001057600080fd5b50600436106100625760003560e01c806341c0e1b5146100675780636898f82b1461007157806390e0c59c1461008d578063b4c95a5c146100ab578063da561510146100db578063ffd1f3ad146100f9575b600080fd5b61006f610115565b005b61008b60048036038101906100869190610800565b6101b2565b005b610095610220565b6040516100a2919061083c565b60405180910390f35b6100c560048036038101906100c09190610800565b61050e565b6040516100d29190610872565b60405180910390f35b6100e3610627565b6040516100f0919061094b565b60405180910390f35b610113600480360381019061010e91906109cb565b61067f565b005b60008054906101000a900473ffffffffffffffffffffffffffffffffffffffff1673ffffffffffffffffffffffffffffffffffffffff163373ffffffffffffffffffffffffffffffffffffffff1614801561017257506000600354115b156101b05760008054906101000a900473ffffffffffffffffffffffffffffffffffffffff1673ffffffffffffffffffffffffffffffffffffffff16ff5b565b6101bb8161050e565b1561021857600454600282815481106101d7576101d66109f8565b5b90600052602060002001819055506001600454036101fc576002600481905550610205565b60016004819055505b61020d610220565b60038190555061021d565b600080fd5b50565b600080600090505b600381101561031257610254818260036102429190610a56565b83600661024f9190610a56565b61070b565b15610280576002818154811061026d5761026c6109f8565b5b906000526020600020015491505061050b565b6102c78160036102909190610aac565b600183600361029f9190610aac565b6102a99190610a56565b60028460036102b89190610aac565b6102c29190610a56565b61070b565b156102ff5760028160036102db9190610aac565b815481106102ec576102eb6109f8565b5b906000526020600020015491505061050b565b808061030a90610b06565b915050610228565b5061032160006004600861070b565b1561034d57600260008154811061033b5761033a6109f8565b5b9060005260206000200154905061050b565b61035b60026004600661070b565b156103865760028081548110610374576103736109f8565b5b9060005260206000200154905061050b565b600d600260018154811061039d5761039c6109f8565b5b906000526020600020015460026001815481106103bd576103bc6109f8565b5b906000526020600020015460026001815481106103dd576103dc6109f8565b5b906000526020600020015460026001815481106103fd576103fc6109f8565b5b9060005260206000200154600260018154811061041d5761041c6109f8565b5b9060005260206000200154600260018154811061043d5761043c6109f8565b5b9060005260206000200154600260018154811061045d5761045c6109f8565b5b9060005260206000200154600260018154811061047d5761047c6109f8565b5b9060005260206000200154600260008154811061049d5761049c6109f8565b5b90600052602060002001546104b29190610a56565b6104bc9190610a56565b6104c69190610a56565b6104d09190610a56565b6104da9190610a56565b6104e49190610a56565b6104ee9190610a56565b6104f89190610a56565b03610506576003905061050b565b600090505b90565b60008060035411806105205750600082105b8061052b5750600882115b806105545750600060028381548110610547576105466109f8565b5b9060005260206000200154115b158015610620575060008054906101000a900473ffffffffffffffffffffffffffffffffffffffff1673ffffffffffffffffffffffffffffffffffffffff163373ffffffffffffffffffffffffffffffffffffffff161480156105b957506001600454145b8061061f5750600160009054906101000a900473ffffffffffffffffffffffffffffffffffffffff1673ffffffffffffffffffffffffffffffffffffffff163373ffffffffffffffffffffffffffffffffffffffff1614801561061e57506002600454145b5b5b9050919050565b6060600280548060200260200160405190810160405280929190818152602001828054801561067557602002820191906000526020600020905b815481526020019060010190808311610661575b5050505050905090565b336000806101000a81548173ffffffffffffffffffffffffffffffffffffffff021916908373ffffffffffffffffffffffffffffffffffffffff16021790555080600160006101000a81548173ffffffffffffffffffffffffffffffffffffffff021916908373ffffffffffffffffffffffffffffffffffffffff160217905550600160048190555050565b60008060028581548110610722576107216109f8565b5b9060005260206000200154118015610775575060028381548110610749576107486109f8565b5b906000526020600020015460028581548110610768576107676109f8565b5b9060005260206000200154145b80156107bc5750600282815481106107905761078f6109f8565b5b9060005260206000200154600284815481106107af576107ae6109f8565b5b9060005260206000200154145b90509392505050565b600080fd5b6000819050919050565b6107dd816107ca565b81146107e857600080fd5b50565b6000813590506107fa816107d4565b92915050565b600060208284031215610816576108156107c5565b5b6000610824848285016107eb565b91505092915050565b610836816107ca565b82525050565b6000602082019050610851600083018461082d565b92915050565b60008115159050919050565b61086c81610857565b82525050565b60006020820190506108876000830184610863565b92915050565b600081519050919050565b600082825260208201905092915050565b6000819050602082019050919050565b6108c2816107ca565b82525050565b60006108d483836108b9565b60208301905092915050565b6000602082019050919050565b60006108f88261088d565b6109028185610898565b935061090d836108a9565b8060005b8381101561093e57815161092588826108c8565b9750610930836108e0565b925050600181019050610911565b5085935050505092915050565b6000602082019050818103600083015261096581846108ed565b905092915050565b600073ffffffffffffffffffffffffffffffffffffffff82169050919050565b60006109988261096d565b9050919050565b6109a88161098d565b81146109b357600080fd5b50565b6000813590506109c58161099f565b92915050565b6000602082840312156109e1576109e06107c5565b5b60006109ef848285016109b6565b91505092915050565b7f4e487b7100000000000000000000000000000000000000000000000000000000600052603260045260246000fd5b7f4e487b7100000000000000000000000000000000000000000000000000000000600052601160045260246000fd5b6000610a61826107ca565b9150610a6c836107ca565b9250827fffffffffffffffffffffffffffffffffffffffffffffffffffffffffffffffff03821115610aa157610aa0610a27565b5b828201905092915050565b6000610ab7826107ca565b9150610ac2836107ca565b9250817fffffffffffffffffffffffffffffffffffffffffffffffffffffffffffffffff0483118215151615610afb57610afa610a27565b5b828202905092915050565b6000610b11826107ca565b91507fffffffffffffffffffffffffffffffffffffffffffffffffffffffffffffffff8203610b4357610b42610a27565b5b60018201905091905056fea26469706673582212207ab5c0ffce84588d3346d4a41f3ea6be5b499dc37ef50ca6808b5b3f90827a7d64736f6c634300080f0033",
  "immutableReferences": {},
  "source": "pragma solidity ^0.8.7;\r\n\r\n    contract Tictactoe {\r\n        address payable p1Address;\r\n        address payable p2Address;\r\n        uint[] board = new uint[](9);\r\n        uint winCondition;\r\n        uint turnNumber;\r\n\r\n        //function makeMove(uint board[]) returns (){\r\n\r\n        //}\r\n\r\n        function subCheckWin(uint a, uint b, uint c) private view returns (bool){\r\n            return board[a]>0 && board[a]==board[b] && board[b]==board[c];\r\n        }\r\n\r\n\r\n        function myTurn(uint turnNumber) private returns (bool) {\r\n            return (msg.sender == p1Address && turnNumber == 1) || (msg.sender == p2Address && turnNumber == 2);\r\n\r\n        }\r\n\r\n        function kill() public {\r\n            if (msg.sender == p1Address && winCondition>0) {\r\n            selfdestruct(p1Address); \r\n        }\r\n        }\r\n\r\n        function validMove(uint a) public view returns (bool){\r\n            return !(winCondition>0 || a<0 || a>8 || board[a]>0) &&\r\n                ((msg.sender == p1Address && turnNumber==1) || (msg.sender == p2Address && turnNumber==2));\r\n        }\r\n\r\n        function displayBoard() public view returns(uint[] memory){\r\n            return board;\r\n        }\r\n\r\n        function winCheck() public view returns (uint){\r\n            for (uint i = 0; i < 3; i++) {\r\n            if (subCheckWin(i,3+i,6+i)) {\r\n                return board[i];\r\n            }\r\n            if (subCheckWin(3*i,3*i+1,3*i+2)) {\r\n                return board[3*i];\r\n            }\r\n        }\r\n        if (subCheckWin(0,4,8)) {\r\n            return board[0];\r\n        }\r\n        if (subCheckWin(2,4,6)) {\r\n            return board[2];\r\n        }\r\n        if (board[0]+board[1]+board[1]+board[1]+board[1]+board[1]+board[1]+board[1]+board[1] == 13){\r\n            return 3;\r\n        }\r\n        return 0;\r\n        }\r\n\r\n        function play(uint a) public {\r\n            if (validMove(a)) {\r\n            board[a] = turnNumber;\r\n            if (turnNumber==1) {\r\n                turnNumber = 2;\r\n            } else { \r\n                turnNumber = 1;\r\n            }\r\n            winCondition = winCheck();\r\n        } else {\r\n            revert();\r\n        }\r\n        }\r\n\r\n        function TicTacToe(address payable p2) public {\r\n            p1Address = payable(msg.sender);\r\n            p2Address = p2;\r\n            turnNumber = 1;\r\n        }\r\n\r\n    }\r\n",
  "sourcePath": "C:\\Users\\guarinof\\Downloads\\eli-kash-g-ttt\\Blockchain-Tic-Tac-Toe\\tictactoe\\contracts\\tictactoe.sol",
  "compiler": {
    "name": "solc",
    "version": "0.8.15+commit.e14f2714.Emscripten.clang"
  },
  "schemaVersion": "3.4.7",
  "updatedAt": "2022-08-04T17:46:51.863Z",
  "devdoc": {
    "kind": "dev",
    "methods": {},
    "version": 1
  },
  "userdoc": {
    "kind": "user",
    "methods": {},
    "version": 1
  }
}