{
  "contractName": "Tictactoe",
  "abi": [
    {
      "inputs": [
        {
          "internalType": "address payable",
          "name": "p2",
          "type": "address"
        }
      ],
      "stateMutability": "nonpayable",
      "type": "constructor"
    },
    {
      "inputs": [
        {
          "internalType": "uint256",
          "name": "_turnNumber",
          "type": "uint256"
        }
      ],
      "name": "myTurn",
      "outputs": [
        {
          "internalType": "bool",
          "name": "",
          "type": "bool"
        }
      ],
      "stateMutability": "view",
      "type": "function",
      "constant": true
    },
    {
      "inputs": [],
      "name": "kill",
      "outputs": [],
      "stateMutability": "nonpayable",
      "type": "function"
    },
    {
      "inputs": [
        {
          "internalType": "uint256",
          "name": "a",
          "type": "uint256"
        }
      ],
      "name": "validMove",
      "outputs": [
        {
          "internalType": "bool",
          "name": "",
          "type": "bool"
        }
      ],
      "stateMutability": "view",
      "type": "function",
      "constant": true
    },
    {
      "inputs": [],
      "name": "displayBoard",
      "outputs": [
        {
          "internalType": "uint256[]",
          "name": "",
          "type": "uint256[]"
        }
      ],
      "stateMutability": "view",
      "type": "function",
      "constant": true
    },
    {
      "inputs": [],
      "name": "winCheck",
      "outputs": [
        {
          "internalType": "uint256",
          "name": "",
          "type": "uint256"
        }
      ],
      "stateMutability": "view",
      "type": "function",
      "constant": true
    },
    {
      "inputs": [
        {
          "internalType": "uint256",
          "name": "a",
          "type": "uint256"
        }
      ],
      "name": "play",
      "outputs": [],
      "stateMutability": "nonpayable",
      "type": "function"
    },
    {
      "inputs": [
        {
          "internalType": "address payable",
          "name": "p2",
          "type": "address"
        }
      ],
      "name": "newGame",
      "outputs": [],
      "stateMutability": "nonpayable",
      "type": "function"
    }
  ],
  "bytecode": "0x6080604052600967ffffffffffffffff8111156200002257620000216200019e565b5b604051908082528060200260200182016040528015620000515781602001602082028036833780820191505090505b5060029080519060200190620000699291906200012d565b503480156200007757600080fd5b506040516200100a3803806200100a83398181016040528101906200009d919062000237565b336000806101000a81548173ffffffffffffffffffffffffffffffffffffffff021916908373ffffffffffffffffffffffffffffffffffffffff16021790555080600160006101000a81548173ffffffffffffffffffffffffffffffffffffffff021916908373ffffffffffffffffffffffffffffffffffffffff16021790555060016004819055505062000269565b8280548282559060005260206000209081019282156200016c579160200282015b828111156200016b5782518255916020019190600101906200014e565b5b5090506200017b91906200017f565b5090565b5b808211156200019a57600081600090555060010162000180565b5090565b7f4e487b7100000000000000000000000000000000000000000000000000000000600052604160045260246000fd5b600080fd5b600073ffffffffffffffffffffffffffffffffffffffff82169050919050565b6000620001ff82620001d2565b9050919050565b6200021181620001f2565b81146200021d57600080fd5b50565b600081519050620002318162000206565b92915050565b60006020828403121562000250576200024f620001cd565b5b6000620002608482850162000220565b91505092915050565b610d9180620002796000396000f3fe608060405234801561001057600080fd5b506004361061007d5760003560e01c8063b4c95a5c1161005b578063b4c95a5c146100c6578063c2e0b1e6146100f6578063da56151014610112578063e7bbb16b146101305761007d565b806341c0e1b5146100825780636898f82b1461008c57806390e0c59c146100a8575b600080fd5b61008a610160565b005b6100a660048036038101906100a191906109de565b6101fd565b005b6100b061026b565b6040516100bd9190610a1a565b60405180910390f35b6100e060048036038101906100db91906109de565b610559565b6040516100ed9190610a50565b60405180910390f35b610110600480360381019061010b9190610ac9565b610672565b005b61011a61075e565b6040516101279190610bb4565b60405180910390f35b61014a600480360381019061014591906109de565b6107b6565b6040516101579190610a50565b60405180910390f35b60008054906101000a900473ffffffffffffffffffffffffffffffffffffffff1673ffffffffffffffffffffffffffffffffffffffff163373ffffffffffffffffffffffffffffffffffffffff161480156101bd57506000600354115b156101fb5760008054906101000a900473ffffffffffffffffffffffffffffffffffffffff1673ffffffffffffffffffffffffffffffffffffffff16ff5b565b61020681610559565b15610263576004546002828154811061022257610221610bd6565b5b9060005260206000200181905550600160045403610247576002600481905550610250565b60016004819055505b61025861026b565b600381905550610268565b600080fd5b50565b600080600090505b600381101561035d5761029f8182600361028d9190610c34565b83600661029a9190610c34565b61087f565b156102cb57600281815481106102b8576102b7610bd6565b5b9060005260206000200154915050610556565b6103128160036102db9190610c8a565b60018360036102ea9190610c8a565b6102f49190610c34565b60028460036103039190610c8a565b61030d9190610c34565b61087f565b1561034a5760028160036103269190610c8a565b8154811061033757610336610bd6565b5b9060005260206000200154915050610556565b808061035590610ce4565b915050610273565b5061036c60006004600861087f565b1561039857600260008154811061038657610385610bd6565b5b90600052602060002001549050610556565b6103a660026004600661087f565b156103d157600280815481106103bf576103be610bd6565b5b90600052602060002001549050610556565b600d60026001815481106103e8576103e7610bd6565b5b9060005260206000200154600260018154811061040857610407610bd6565b5b9060005260206000200154600260018154811061042857610427610bd6565b5b9060005260206000200154600260018154811061044857610447610bd6565b5b9060005260206000200154600260018154811061046857610467610bd6565b5b9060005260206000200154600260018154811061048857610487610bd6565b5b906000526020600020015460026001815481106104a8576104a7610bd6565b5b906000526020600020015460026001815481106104c8576104c7610bd6565b5b906000526020600020015460026000815481106104e8576104e7610bd6565b5b90600052602060002001546104fd9190610c34565b6105079190610c34565b6105119190610c34565b61051b9190610c34565b6105259190610c34565b61052f9190610c34565b6105399190610c34565b6105439190610c34565b036105515760039050610556565b600090505b90565b600080600354118061056b5750600082105b806105765750600882115b8061059f575060006002838154811061059257610591610bd6565b5b9060005260206000200154115b15801561066b575060008054906101000a900473ffffffffffffffffffffffffffffffffffffffff1673ffffffffffffffffffffffffffffffffffffffff163373ffffffffffffffffffffffffffffffffffffffff1614801561060457506001600454145b8061066a5750600160009054906101000a900473ffffffffffffffffffffffffffffffffffffffff1673ffffffffffffffffffffffffffffffffffffffff163373ffffffffffffffffffffffffffffffffffffffff1614801561066957506002600454145b5b5b9050919050565b336000806101000a81548173ffffffffffffffffffffffffffffffffffffffff021916908373ffffffffffffffffffffffffffffffffffffffff16021790555080600160006101000a81548173ffffffffffffffffffffffffffffffffffffffff021916908373ffffffffffffffffffffffffffffffffffffffff1602179055506001600481905550600967ffffffffffffffff81111561071657610715610d2c565b5b6040519080825280602002602001820160405280156107445781602001602082028036833780820191505090505b506002908051906020019061075a929190610939565b5050565b606060028054806020026020016040519081016040528092919081815260200182805480156107ac57602002820191906000526020600020905b815481526020019060010190808311610798575b5050505050905090565b60008060009054906101000a900473ffffffffffffffffffffffffffffffffffffffff1673ffffffffffffffffffffffffffffffffffffffff163373ffffffffffffffffffffffffffffffffffffffff161480156108145750600182145b806108785750600160009054906101000a900473ffffffffffffffffffffffffffffffffffffffff1673ffffffffffffffffffffffffffffffffffffffff163373ffffffffffffffffffffffffffffffffffffffff161480156108775750600282145b5b9050919050565b6000806002858154811061089657610895610bd6565b5b90600052602060002001541180156108e95750600283815481106108bd576108bc610bd6565b5b9060005260206000200154600285815481106108dc576108db610bd6565b5b9060005260206000200154145b801561093057506002828154811061090457610903610bd6565b5b90600052602060002001546002848154811061092357610922610bd6565b5b9060005260206000200154145b90509392505050565b828054828255906000526020600020908101928215610975579160200282015b82811115610974578251825591602001919060010190610959565b5b5090506109829190610986565b5090565b5b8082111561099f576000816000905550600101610987565b5090565b600080fd5b6000819050919050565b6109bb816109a8565b81146109c657600080fd5b50565b6000813590506109d8816109b2565b92915050565b6000602082840312156109f4576109f36109a3565b5b6000610a02848285016109c9565b91505092915050565b610a14816109a8565b82525050565b6000602082019050610a2f6000830184610a0b565b92915050565b60008115159050919050565b610a4a81610a35565b82525050565b6000602082019050610a656000830184610a41565b92915050565b600073ffffffffffffffffffffffffffffffffffffffff82169050919050565b6000610a9682610a6b565b9050919050565b610aa681610a8b565b8114610ab157600080fd5b50565b600081359050610ac381610a9d565b92915050565b600060208284031215610adf57610ade6109a3565b5b6000610aed84828501610ab4565b91505092915050565b600081519050919050565b600082825260208201905092915050565b6000819050602082019050919050565b610b2b816109a8565b82525050565b6000610b3d8383610b22565b60208301905092915050565b6000602082019050919050565b6000610b6182610af6565b610b6b8185610b01565b9350610b7683610b12565b8060005b83811015610ba7578151610b8e8882610b31565b9750610b9983610b49565b925050600181019050610b7a565b5085935050505092915050565b60006020820190508181036000830152610bce8184610b56565b905092915050565b7f4e487b7100000000000000000000000000000000000000000000000000000000600052603260045260246000fd5b7f4e487b7100000000000000000000000000000000000000000000000000000000600052601160045260246000fd5b6000610c3f826109a8565b9150610c4a836109a8565b9250827fffffffffffffffffffffffffffffffffffffffffffffffffffffffffffffffff03821115610c7f57610c7e610c05565b5b828201905092915050565b6000610c95826109a8565b9150610ca0836109a8565b9250817fffffffffffffffffffffffffffffffffffffffffffffffffffffffffffffffff0483118215151615610cd957610cd8610c05565b5b828202905092915050565b6000610cef826109a8565b91507fffffffffffffffffffffffffffffffffffffffffffffffffffffffffffffffff8203610d2157610d20610c05565b5b600182019050919050565b7f4e487b7100000000000000000000000000000000000000000000000000000000600052604160045260246000fdfea2646970667358221220770757ed1b3f613b79b2761d641be49b8b8316213474cb5dfb00e0cc416ff81564736f6c634300080f0033",
  "immutableReferences": {},
  "source": "// SPDX-License-Identifier: GPL-3.0\r\n\r\npragma solidity ^0.8.7;\r\n\r\n    contract Tictactoe {\r\n        address payable p1Address;\r\n        address payable p2Address;\r\n        uint[] board = new uint[](9);\r\n        uint winCondition;\r\n        uint turnNumber;\r\n\r\n        //function makeMove(uint board[]) returns (){\r\n\r\n        //}\r\n\r\n        constructor(address payable p2) {\r\n            p1Address = payable(msg.sender);\r\n            p2Address = p2;\r\n            turnNumber = 1;\r\n        }\r\n\r\n        function subCheckWin(uint a, uint b, uint c) private view returns (bool){\r\n            return board[a]>0 && board[a]==board[b] && board[b]==board[c];\r\n        }\r\n\r\n\r\n        function myTurn(uint _turnNumber) public view returns (bool) {\r\n            return (msg.sender == p1Address && _turnNumber == 1) || (msg.sender == p2Address && _turnNumber == 2);\r\n\r\n        }\r\n\r\n        function kill() public {\r\n            if (msg.sender == p1Address && winCondition>0) {\r\n            selfdestruct(p1Address); \r\n        }\r\n        }\r\n\r\n        function validMove(uint a) public view returns (bool){\r\n            return !(winCondition>0 || a<0 || a>8 || board[a]>0) &&\r\n                ((msg.sender == p1Address && turnNumber==1) || (msg.sender == p2Address && turnNumber==2));\r\n        }\r\n\r\n        function displayBoard() public view returns(uint[] memory){\r\n            return board;\r\n        }\r\n\r\n        function winCheck() public view returns (uint){\r\n            for (uint i = 0; i < 3; i++) {\r\n            if (subCheckWin(i,3+i,6+i)) {\r\n                return board[i];\r\n            }\r\n            if (subCheckWin(3*i,3*i+1,3*i+2)) {\r\n                return board[3*i];\r\n            }\r\n        }\r\n        if (subCheckWin(0,4,8)) {\r\n            return board[0];\r\n        }\r\n        if (subCheckWin(2,4,6)) {\r\n            return board[2];\r\n        }\r\n        if (board[0]+board[1]+board[1]+board[1]+board[1]+board[1]+board[1]+board[1]+board[1] == 13){\r\n            return 3;\r\n        }\r\n        return 0;\r\n        }\r\n\r\n        function play(uint a) public {\r\n            if (validMove(a)) {\r\n            board[a] = turnNumber;\r\n            if (turnNumber==1) {\r\n                turnNumber = 2;\r\n            } else { \r\n                turnNumber = 1;\r\n            }\r\n            winCondition = winCheck();\r\n        } else {\r\n            revert();\r\n        }\r\n        }\r\n\r\n\r\n\r\n        function newGame(address payable p2) public {\r\n            p1Address = payable(msg.sender);\r\n            p2Address = p2;\r\n            turnNumber = 1;\r\n            board = new uint[](9);\r\n        }\r\n\r\n    }\r\n",
  "sourcePath": "C:\\Users\\guarinof\\Downloads\\eli-kash-g-ttt\\Blockchain-Tic-Tac-Toe\\tictactoe\\contracts\\tictactoe.sol",
  "compiler": {
    "name": "solc",
    "version": "0.8.15+commit.e14f2714.Emscripten.clang"
  },
  "schemaVersion": "3.4.7",
  "updatedAt": "2022-08-08T19:27:04.541Z",
  "networkType": "ethereum",
  "devdoc": {
    "kind": "dev",
    "methods": {},
    "version": 1
  },
  "userdoc": {
    "kind": "user",
    "methods": {},
    "version": 1
  }
}