{
  "contractName": "Tictactoe",
  "abi": [
    {
      "inputs": [
        {
          "internalType": "address payable",
          "name": "p2",
          "type": "address"
        }
      ],
      "stateMutability": "nonpayable",
      "type": "constructor"
    },
    {
      "inputs": [
        {
          "internalType": "uint256",
          "name": "_turnNumber",
          "type": "uint256"
        }
      ],
      "name": "myTurn",
      "outputs": [
        {
          "internalType": "bool",
          "name": "",
          "type": "bool"
        }
      ],
      "stateMutability": "view",
      "type": "function"
    },
    {
      "inputs": [],
      "name": "kill",
      "outputs": [],
      "stateMutability": "nonpayable",
      "type": "function"
    },
    {
      "inputs": [
        {
          "internalType": "uint256",
          "name": "a",
          "type": "uint256"
        }
      ],
      "name": "validMove",
      "outputs": [
        {
          "internalType": "bool",
          "name": "",
          "type": "bool"
        }
      ],
      "stateMutability": "view",
      "type": "function"
    },
    {
      "inputs": [],
      "name": "displayBoard",
      "outputs": [
        {
          "internalType": "uint256[]",
          "name": "",
          "type": "uint256[]"
        }
      ],
      "stateMutability": "view",
      "type": "function"
    },
    {
      "inputs": [],
      "name": "winCheck",
      "outputs": [
        {
          "internalType": "uint256",
          "name": "",
          "type": "uint256"
        }
      ],
      "stateMutability": "view",
      "type": "function"
    },
    {
      "inputs": [
        {
          "internalType": "uint256",
          "name": "a",
          "type": "uint256"
        }
      ],
      "name": "play",
      "outputs": [],
      "stateMutability": "nonpayable",
      "type": "function"
    },
    {
      "inputs": [],
      "name": "winner",
      "outputs": [
        {
          "internalType": "uint256",
          "name": "",
          "type": "uint256"
        }
      ],
      "stateMutability": "view",
      "type": "function"
    },
    {
      "inputs": [
        {
          "internalType": "address payable",
          "name": "p2",
          "type": "address"
        }
      ],
      "name": "newGame",
      "outputs": [],
      "stateMutability": "nonpayable",
      "type": "function"
    }
  ],
  "bytecode": "0x6080604052600967ffffffffffffffff8111156200002257620000216200019e565b5b604051908082528060200260200182016040528015620000515781602001602082028036833780820191505090505b5060029080519060200190620000699291906200012d565b503480156200007757600080fd5b50604051620010773803806200107783398181016040528101906200009d919062000237565b336000806101000a81548173ffffffffffffffffffffffffffffffffffffffff021916908373ffffffffffffffffffffffffffffffffffffffff16021790555080600160006101000a81548173ffffffffffffffffffffffffffffffffffffffff021916908373ffffffffffffffffffffffffffffffffffffffff16021790555060016004819055505062000269565b8280548282559060005260206000209081019282156200016c579160200282015b828111156200016b5782518255916020019190600101906200014e565b5b5090506200017b91906200017f565b5090565b5b808211156200019a57600081600090555060010162000180565b5090565b7f4e487b7100000000000000000000000000000000000000000000000000000000600052604160045260246000fd5b600080fd5b600073ffffffffffffffffffffffffffffffffffffffff82169050919050565b6000620001ff82620001d2565b9050919050565b6200021181620001f2565b81146200021d57600080fd5b50565b600081519050620002318162000206565b92915050565b60006020828403121562000250576200024f620001cd565b5b6000620002608482850162000220565b91505092915050565b610dfe80620002796000396000f3fe608060405234801561001057600080fd5b50600436106100885760003560e01c8063c2e0b1e61161005b578063c2e0b1e614610101578063da5615101461011d578063dfbf53ae1461013b578063e7bbb16b1461015957610088565b806341c0e1b51461008d5780636898f82b1461009757806390e0c59c146100b3578063b4c95a5c146100d1575b600080fd5b610095610189565b005b6100b160048036038101906100ac9190610a4b565b610226565b005b6100bb610294565b6040516100c89190610a87565b60405180910390f35b6100eb60048036038101906100e69190610a4b565b610582565b6040516100f89190610abd565b60405180910390f35b61011b60048036038101906101169190610b36565b61069b565b005b61012561078f565b6040516101329190610c21565b60405180910390f35b6101436107e7565b6040516101509190610a87565b60405180910390f35b610173600480360381019061016e9190610a4b565b610805565b6040516101809190610abd565b60405180910390f35b60008054906101000a900473ffffffffffffffffffffffffffffffffffffffff1673ffffffffffffffffffffffffffffffffffffffff163373ffffffffffffffffffffffffffffffffffffffff161480156101e657506000600354115b156102245760008054906101000a900473ffffffffffffffffffffffffffffffffffffffff1673ffffffffffffffffffffffffffffffffffffffff16ff5b565b61022f81610582565b1561028c576004546002828154811061024b5761024a610c43565b5b9060005260206000200181905550600160045403610270576002600481905550610279565b60016004819055505b610281610294565b600381905550610291565b600080fd5b50565b600080600090505b6003811015610386576102c8818260036102b69190610ca1565b8360066102c39190610ca1565b6108ec565b156102f457600281815481106102e1576102e0610c43565b5b906000526020600020015491505061057f565b61033b8160036103049190610cf7565b60018360036103139190610cf7565b61031d9190610ca1565b600284600361032c9190610cf7565b6103369190610ca1565b6108ec565b1561037357600281600361034f9190610cf7565b815481106103605761035f610c43565b5b906000526020600020015491505061057f565b808061037e90610d51565b91505061029c565b506103956000600460086108ec565b156103c15760026000815481106103af576103ae610c43565b5b9060005260206000200154905061057f565b6103cf6002600460066108ec565b156103fa57600280815481106103e8576103e7610c43565b5b9060005260206000200154905061057f565b600d600260018154811061041157610410610c43565b5b9060005260206000200154600260018154811061043157610430610c43565b5b9060005260206000200154600260018154811061045157610450610c43565b5b9060005260206000200154600260018154811061047157610470610c43565b5b9060005260206000200154600260018154811061049157610490610c43565b5b906000526020600020015460026001815481106104b1576104b0610c43565b5b906000526020600020015460026001815481106104d1576104d0610c43565b5b906000526020600020015460026001815481106104f1576104f0610c43565b5b9060005260206000200154600260008154811061051157610510610c43565b5b90600052602060002001546105269190610ca1565b6105309190610ca1565b61053a9190610ca1565b6105449190610ca1565b61054e9190610ca1565b6105589190610ca1565b6105629190610ca1565b61056c9190610ca1565b0361057a576003905061057f565b600090505b90565b60008060035411806105945750600082105b8061059f5750600882115b806105c857506000600283815481106105bb576105ba610c43565b5b9060005260206000200154115b158015610694575060008054906101000a900473ffffffffffffffffffffffffffffffffffffffff1673ffffffffffffffffffffffffffffffffffffffff163373ffffffffffffffffffffffffffffffffffffffff1614801561062d57506001600454145b806106935750600160009054906101000a900473ffffffffffffffffffffffffffffffffffffffff1673ffffffffffffffffffffffffffffffffffffffff163373ffffffffffffffffffffffffffffffffffffffff1614801561069257506002600454145b5b5b9050919050565b336000806101000a81548173ffffffffffffffffffffffffffffffffffffffff021916908373ffffffffffffffffffffffffffffffffffffffff16021790555080600160006101000a81548173ffffffffffffffffffffffffffffffffffffffff021916908373ffffffffffffffffffffffffffffffffffffffff1602179055506001600481905550600967ffffffffffffffff81111561073f5761073e610d99565b5b60405190808252806020026020018201604052801561076d5781602001602082028036833780820191505090505b50600290805190602001906107839291906109a6565b50600060038190555050565b606060028054806020026020016040519081016040528092919081815260200182805480156107dd57602002820191906000526020600020905b8154815260200190600101908083116107c9575b5050505050905090565b60008060035411156107fd576003549050610802565b600090505b90565b60008060009054906101000a900473ffffffffffffffffffffffffffffffffffffffff1673ffffffffffffffffffffffffffffffffffffffff163373ffffffffffffffffffffffffffffffffffffffff16148015610864575060045482145b801561087257506000600354145b806108e55750600160009054906101000a900473ffffffffffffffffffffffffffffffffffffffff1673ffffffffffffffffffffffffffffffffffffffff163373ffffffffffffffffffffffffffffffffffffffff161480156108d6575060045482145b80156108e457506000600354145b5b9050919050565b6000806002858154811061090357610902610c43565b5b906000526020600020015411801561095657506002838154811061092a57610929610c43565b5b90600052602060002001546002858154811061094957610948610c43565b5b9060005260206000200154145b801561099d57506002828154811061097157610970610c43565b5b9060005260206000200154600284815481106109905761098f610c43565b5b9060005260206000200154145b90509392505050565b8280548282559060005260206000209081019282156109e2579160200282015b828111156109e15782518255916020019190600101906109c6565b5b5090506109ef91906109f3565b5090565b5b80821115610a0c5760008160009055506001016109f4565b5090565b600080fd5b6000819050919050565b610a2881610a15565b8114610a3357600080fd5b50565b600081359050610a4581610a1f565b92915050565b600060208284031215610a6157610a60610a10565b5b6000610a6f84828501610a36565b91505092915050565b610a8181610a15565b82525050565b6000602082019050610a9c6000830184610a78565b92915050565b60008115159050919050565b610ab781610aa2565b82525050565b6000602082019050610ad26000830184610aae565b92915050565b600073ffffffffffffffffffffffffffffffffffffffff82169050919050565b6000610b0382610ad8565b9050919050565b610b1381610af8565b8114610b1e57600080fd5b50565b600081359050610b3081610b0a565b92915050565b600060208284031215610b4c57610b4b610a10565b5b6000610b5a84828501610b21565b91505092915050565b600081519050919050565b600082825260208201905092915050565b6000819050602082019050919050565b610b9881610a15565b82525050565b6000610baa8383610b8f565b60208301905092915050565b6000602082019050919050565b6000610bce82610b63565b610bd88185610b6e565b9350610be383610b7f565b8060005b83811015610c14578151610bfb8882610b9e565b9750610c0683610bb6565b925050600181019050610be7565b5085935050505092915050565b60006020820190508181036000830152610c3b8184610bc3565b905092915050565b7f4e487b7100000000000000000000000000000000000000000000000000000000600052603260045260246000fd5b7f4e487b7100000000000000000000000000000000000000000000000000000000600052601160045260246000fd5b6000610cac82610a15565b9150610cb783610a15565b9250827fffffffffffffffffffffffffffffffffffffffffffffffffffffffffffffffff03821115610cec57610ceb610c72565b5b828201905092915050565b6000610d0282610a15565b9150610d0d83610a15565b9250817fffffffffffffffffffffffffffffffffffffffffffffffffffffffffffffffff0483118215151615610d4657610d45610c72565b5b828202905092915050565b6000610d5c82610a15565b91507fffffffffffffffffffffffffffffffffffffffffffffffffffffffffffffffff8203610d8e57610d8d610c72565b5b600182019050919050565b7f4e487b7100000000000000000000000000000000000000000000000000000000600052604160045260246000fdfea2646970667358221220983f2b7a30f07b40d2aa0517b65f0e414876aebf300a39a3581787fae6829e1364736f6c634300080f0033",
  "immutableReferences": {},
  "source": "// SPDX-License-Identifier: GPL-3.0\r\n\r\npragma solidity ^0.8.7;\r\n\r\n    contract Tictactoe {\r\n        address payable p1Address;\r\n        address payable p2Address;\r\n        uint[] board = new uint[](9);\r\n        uint winCondition;\r\n        uint turnNumber;\r\n\r\n        //function makeMove(uint board[]) returns (){\r\n\r\n        //}\r\n\r\n        constructor(address payable p2) {\r\n            p1Address = payable(msg.sender);\r\n            p2Address = p2;\r\n            turnNumber = 1;\r\n        }\r\n\r\n        function subCheckWin(uint a, uint b, uint c) private view returns (bool){\r\n            return board[a]>0 && board[a]==board[b] && board[b]==board[c];\r\n        }\r\n\r\n\r\n        function myTurn(uint _turnNumber) public view returns (bool) {\r\n            return (msg.sender == p1Address && _turnNumber == turnNumber && winCondition == 0) || (msg.sender == p2Address && _turnNumber == turnNumber && winCondition == 0);\r\n        }\r\n\r\n        function kill() public {\r\n            if (msg.sender == p1Address && winCondition>0) {\r\n            selfdestruct(p1Address); \r\n        }\r\n        }\r\n\r\n        function validMove(uint a) public view returns (bool){\r\n            return !(winCondition>0 || a<0 || a>8 || board[a]>0) &&\r\n                ((msg.sender == p1Address && turnNumber==1) || (msg.sender == p2Address && turnNumber==2));\r\n        }\r\n\r\n        function displayBoard() public view returns(uint[] memory){\r\n            return board;\r\n        }\r\n\r\n        function winCheck() public view returns (uint){\r\n            for (uint i = 0; i < 3; i++) {\r\n            if (subCheckWin(i,3+i,6+i)) {\r\n                return board[i];\r\n            }\r\n            if (subCheckWin(3*i,3*i+1,3*i+2)) {\r\n                return board[3*i];\r\n            }\r\n        }\r\n        if (subCheckWin(0,4,8)) {\r\n            return board[0];\r\n        }\r\n        if (subCheckWin(2,4,6)) {\r\n            return board[2];\r\n        }\r\n        if (board[0]+board[1]+board[1]+board[1]+board[1]+board[1]+board[1]+board[1]+board[1] == 13){\r\n            return 3;\r\n        }\r\n        return 0;\r\n        }\r\n\r\n        function play(uint a) public {\r\n            if (validMove(a)) {\r\n            board[a] = turnNumber;\r\n            if (turnNumber==1) {\r\n                turnNumber = 2;\r\n            } else { \r\n                turnNumber = 1;\r\n            }\r\n            winCondition = winCheck();\r\n        } else {\r\n            revert();\r\n        }\r\n        }\r\n\r\n    function winner() public view returns (uint) {\r\n\r\n        //getter for the winner attribute\r\n        if (winCondition>0) {\r\n            return winCondition;\r\n        } else {\r\n            return 0;\r\n        }    \r\n    }\r\n\r\n        function newGame(address payable p2) public {\r\n            p1Address = payable(msg.sender);\r\n            p2Address = p2;\r\n            turnNumber = 1;\r\n            board = new uint[](9);\r\n            winCondition = 0;\r\n        }\r\n\r\n    }\r\n",
  "sourcePath": "C:\\Users\\guarinof\\Downloads\\eli-kash-g-ttt\\Blockchain-Tic-Tac-Toe\\tictactoe\\contracts\\tictactoe.sol",
  "compiler": {
    "name": "solc",
    "version": "0.8.15+commit.e14f2714.Emscripten.clang"
  },
  "schemaVersion": "3.4.7",
  "updatedAt": "2022-08-09T17:53:27.584Z",
  "devdoc": {
    "kind": "dev",
    "methods": {},
    "version": 1
  },
  "userdoc": {
    "kind": "user",
    "methods": {},
    "version": 1
  }
}